{
	"data": {
		"bytecode": {
			"linkReferences": {},
			"object": "60806040526040518060400160405280600c81526020017f43616c6562732053746f726500000000000000000000000000000000000000008152506001908051906020019061004f929190610062565b5034801561005c57600080fd5b50610166565b82805461006e90610134565b90600052602060002090601f01602090048101928261009057600085556100d7565b82601f106100a957805160ff19168380011785556100d7565b828001600101855582156100d7579182015b828111156100d65782518255916020019190600101906100bb565b5b5090506100e491906100e8565b5090565b5b808211156101015760008160009055506001016100e9565b5090565b7f4e487b7100000000000000000000000000000000000000000000000000000000600052602260045260246000fd5b6000600282049050600182168061014c57607f821691505b602082108114156101605761015f610105565b5b50919050565b6106aa806101756000396000f3fe608060405234801561001057600080fd5b50600436106100575760003560e01c80632b36a6571461005c578063521936e61461007a5780637249b35414610098578063d7b7c408146100b4578063e9403013146100e4575b600080fd5b610064610100565b604051610071919061020c565b60405180910390f35b610082610106565b60405161008f91906102c0565b60405180910390f35b6100b260048036038101906100ad9190610313565b610194565b005b6100ce60048036038101906100c99190610378565b6101af565b6040516100db919061020c565b60405180910390f35b6100fe60048036038101906100f99190610313565b6101d8565b005b60005481565b60018054610113906103d4565b80601f016020809104026020016040519081016040528092919081815260200182805461013f906103d4565b801561018c5780601f106101615761010080835404028352916020019161018c565b820191906000526020600020905b81548152906001019060200180831161016f57829003601f168201915b505050505081565b806000808282546101a59190610435565b9250508190555050565b600081156101c15760005490506101d3565b60646000546101d091906104c9565b90505b919050565b806000808282546101e991906105e0565b9250508190555050565b6000819050919050565b610206816101f3565b82525050565b600060208201905061022160008301846101fd565b92915050565b600081519050919050565b600082825260208201905092915050565b60005b83811015610261578082015181840152602081019050610246565b83811115610270576000848401525b50505050565b6000601f19601f8301169050919050565b600061029282610227565b61029c8185610232565b93506102ac818560208601610243565b6102b581610276565b840191505092915050565b600060208201905081810360008301526102da8184610287565b905092915050565b600080fd5b6102f0816101f3565b81146102fb57600080fd5b50565b60008135905061030d816102e7565b92915050565b600060208284031215610329576103286102e2565b5b6000610337848285016102fe565b91505092915050565b60008115159050919050565b61035581610340565b811461036057600080fd5b50565b6000813590506103728161034c565b92915050565b60006020828403121561038e5761038d6102e2565b5b600061039c84828501610363565b91505092915050565b7f4e487b7100000000000000000000000000000000000000000000000000000000600052602260045260246000fd5b600060028204905060018216806103ec57607f821691505b60208210811415610400576103ff6103a5565b5b50919050565b7f4e487b7100000000000000000000000000000000000000000000000000000000600052601160045260246000fd5b6000610440826101f3565b915061044b836101f3565b9250827f80000000000000000000000000000000000000000000000000000000000000000182126000841215161561048657610485610406565b5b827f7fffffffffffffffffffffffffffffffffffffffffffffffffffffffffffffff0182136000841216156104be576104bd610406565b5b828203905092915050565b60006104d4826101f3565b91506104df836101f3565b9250827f7fffffffffffffffffffffffffffffffffffffffffffffffffffffffffffffff048211600084136000841316161561051e5761051d610406565b5b817f8000000000000000000000000000000000000000000000000000000000000000058312600084126000841316161561055b5761055a610406565b5b827f8000000000000000000000000000000000000000000000000000000000000000058212600084136000841216161561059857610597610406565b5b827f7fffffffffffffffffffffffffffffffffffffffffffffffffffffffffffffff05821260008412600084121616156105d5576105d4610406565b5b828202905092915050565b60006105eb826101f3565b91506105f6836101f3565b9250817f7fffffffffffffffffffffffffffffffffffffffffffffffffffffffffffffff0383136000831215161561063157610630610406565b5b817f800000000000000000000000000000000000000000000000000000000000000003831260008312161561066957610668610406565b5b82820190509291505056fea2646970667358221220e2f0aa45dc6cfadc5c8fcd2388f288dd226d2a490a86896884919ac03ea0c57864736f6c634300080a0033",
			"opcodes": "PUSH1 0x80 PUSH1 0x40 MSTORE PUSH1 0x40 MLOAD DUP1 PUSH1 0x40 ADD PUSH1 0x40 MSTORE DUP1 PUSH1 0xC DUP2 MSTORE PUSH1 0x20 ADD PUSH32 0x43616C6562732053746F72650000000000000000000000000000000000000000 DUP2 MSTORE POP PUSH1 0x1 SWAP1 DUP1 MLOAD SWAP1 PUSH1 0x20 ADD SWAP1 PUSH2 0x4F SWAP3 SWAP2 SWAP1 PUSH2 0x62 JUMP JUMPDEST POP CALLVALUE DUP1 ISZERO PUSH2 0x5C JUMPI PUSH1 0x0 DUP1 REVERT JUMPDEST POP PUSH2 0x166 JUMP JUMPDEST DUP3 DUP1 SLOAD PUSH2 0x6E SWAP1 PUSH2 0x134 JUMP JUMPDEST SWAP1 PUSH1 0x0 MSTORE PUSH1 0x20 PUSH1 0x0 KECCAK256 SWAP1 PUSH1 0x1F ADD PUSH1 0x20 SWAP1 DIV DUP2 ADD SWAP3 DUP3 PUSH2 0x90 JUMPI PUSH1 0x0 DUP6 SSTORE PUSH2 0xD7 JUMP JUMPDEST DUP3 PUSH1 0x1F LT PUSH2 0xA9 JUMPI DUP1 MLOAD PUSH1 0xFF NOT AND DUP4 DUP1 ADD OR DUP6 SSTORE PUSH2 0xD7 JUMP JUMPDEST DUP3 DUP1 ADD PUSH1 0x1 ADD DUP6 SSTORE DUP3 ISZERO PUSH2 0xD7 JUMPI SWAP2 DUP3 ADD JUMPDEST DUP3 DUP2 GT ISZERO PUSH2 0xD6 JUMPI DUP3 MLOAD DUP3 SSTORE SWAP2 PUSH1 0x20 ADD SWAP2 SWAP1 PUSH1 0x1 ADD SWAP1 PUSH2 0xBB JUMP JUMPDEST JUMPDEST POP SWAP1 POP PUSH2 0xE4 SWAP2 SWAP1 PUSH2 0xE8 JUMP JUMPDEST POP SWAP1 JUMP JUMPDEST JUMPDEST DUP1 DUP3 GT ISZERO PUSH2 0x101 JUMPI PUSH1 0x0 DUP2 PUSH1 0x0 SWAP1 SSTORE POP PUSH1 0x1 ADD PUSH2 0xE9 JUMP JUMPDEST POP SWAP1 JUMP JUMPDEST PUSH32 0x4E487B7100000000000000000000000000000000000000000000000000000000 PUSH1 0x0 MSTORE PUSH1 0x22 PUSH1 0x4 MSTORE PUSH1 0x24 PUSH1 0x0 REVERT JUMPDEST PUSH1 0x0 PUSH1 0x2 DUP3 DIV SWAP1 POP PUSH1 0x1 DUP3 AND DUP1 PUSH2 0x14C JUMPI PUSH1 0x7F DUP3 AND SWAP2 POP JUMPDEST PUSH1 0x20 DUP3 LT DUP2 EQ ISZERO PUSH2 0x160 JUMPI PUSH2 0x15F PUSH2 0x105 JUMP JUMPDEST JUMPDEST POP SWAP2 SWAP1 POP JUMP JUMPDEST PUSH2 0x6AA DUP1 PUSH2 0x175 PUSH1 0x0 CODECOPY PUSH1 0x0 RETURN INVALID PUSH1 0x80 PUSH1 0x40 MSTORE CALLVALUE DUP1 ISZERO PUSH2 0x10 JUMPI PUSH1 0x0 DUP1 REVERT JUMPDEST POP PUSH1 0x4 CALLDATASIZE LT PUSH2 0x57 JUMPI PUSH1 0x0 CALLDATALOAD PUSH1 0xE0 SHR DUP1 PUSH4 0x2B36A657 EQ PUSH2 0x5C JUMPI DUP1 PUSH4 0x521936E6 EQ PUSH2 0x7A JUMPI DUP1 PUSH4 0x7249B354 EQ PUSH2 0x98 JUMPI DUP1 PUSH4 0xD7B7C408 EQ PUSH2 0xB4 JUMPI DUP1 PUSH4 0xE9403013 EQ PUSH2 0xE4 JUMPI JUMPDEST PUSH1 0x0 DUP1 REVERT JUMPDEST PUSH2 0x64 PUSH2 0x100 JUMP JUMPDEST PUSH1 0x40 MLOAD PUSH2 0x71 SWAP2 SWAP1 PUSH2 0x20C JUMP JUMPDEST PUSH1 0x40 MLOAD DUP1 SWAP2 SUB SWAP1 RETURN JUMPDEST PUSH2 0x82 PUSH2 0x106 JUMP JUMPDEST PUSH1 0x40 MLOAD PUSH2 0x8F SWAP2 SWAP1 PUSH2 0x2C0 JUMP JUMPDEST PUSH1 0x40 MLOAD DUP1 SWAP2 SUB SWAP1 RETURN JUMPDEST PUSH2 0xB2 PUSH1 0x4 DUP1 CALLDATASIZE SUB DUP2 ADD SWAP1 PUSH2 0xAD SWAP2 SWAP1 PUSH2 0x313 JUMP JUMPDEST PUSH2 0x194 JUMP JUMPDEST STOP JUMPDEST PUSH2 0xCE PUSH1 0x4 DUP1 CALLDATASIZE SUB DUP2 ADD SWAP1 PUSH2 0xC9 SWAP2 SWAP1 PUSH2 0x378 JUMP JUMPDEST PUSH2 0x1AF JUMP JUMPDEST PUSH1 0x40 MLOAD PUSH2 0xDB SWAP2 SWAP1 PUSH2 0x20C JUMP JUMPDEST PUSH1 0x40 MLOAD DUP1 SWAP2 SUB SWAP1 RETURN JUMPDEST PUSH2 0xFE PUSH1 0x4 DUP1 CALLDATASIZE SUB DUP2 ADD SWAP1 PUSH2 0xF9 SWAP2 SWAP1 PUSH2 0x313 JUMP JUMPDEST PUSH2 0x1D8 JUMP JUMPDEST STOP JUMPDEST PUSH1 0x0 SLOAD DUP2 JUMP JUMPDEST PUSH1 0x1 DUP1 SLOAD PUSH2 0x113 SWAP1 PUSH2 0x3D4 JUMP JUMPDEST DUP1 PUSH1 0x1F ADD PUSH1 0x20 DUP1 SWAP2 DIV MUL PUSH1 0x20 ADD PUSH1 0x40 MLOAD SWAP1 DUP2 ADD PUSH1 0x40 MSTORE DUP1 SWAP3 SWAP2 SWAP1 DUP2 DUP2 MSTORE PUSH1 0x20 ADD DUP3 DUP1 SLOAD PUSH2 0x13F SWAP1 PUSH2 0x3D4 JUMP JUMPDEST DUP1 ISZERO PUSH2 0x18C JUMPI DUP1 PUSH1 0x1F LT PUSH2 0x161 JUMPI PUSH2 0x100 DUP1 DUP4 SLOAD DIV MUL DUP4 MSTORE SWAP2 PUSH1 0x20 ADD SWAP2 PUSH2 0x18C JUMP JUMPDEST DUP3 ADD SWAP2 SWAP1 PUSH1 0x0 MSTORE PUSH1 0x20 PUSH1 0x0 KECCAK256 SWAP1 JUMPDEST DUP2 SLOAD DUP2 MSTORE SWAP1 PUSH1 0x1 ADD SWAP1 PUSH1 0x20 ADD DUP1 DUP4 GT PUSH2 0x16F JUMPI DUP3 SWAP1 SUB PUSH1 0x1F AND DUP3 ADD SWAP2 JUMPDEST POP POP POP POP POP DUP2 JUMP JUMPDEST DUP1 PUSH1 0x0 DUP1 DUP3 DUP3 SLOAD PUSH2 0x1A5 SWAP2 SWAP1 PUSH2 0x435 JUMP JUMPDEST SWAP3 POP POP DUP2 SWAP1 SSTORE POP POP JUMP JUMPDEST PUSH1 0x0 DUP2 ISZERO PUSH2 0x1C1 JUMPI PUSH1 0x0 SLOAD SWAP1 POP PUSH2 0x1D3 JUMP JUMPDEST PUSH1 0x64 PUSH1 0x0 SLOAD PUSH2 0x1D0 SWAP2 SWAP1 PUSH2 0x4C9 JUMP JUMPDEST SWAP1 POP JUMPDEST SWAP2 SWAP1 POP JUMP JUMPDEST DUP1 PUSH1 0x0 DUP1 DUP3 DUP3 SLOAD PUSH2 0x1E9 SWAP2 SWAP1 PUSH2 0x5E0 JUMP JUMPDEST SWAP3 POP POP DUP2 SWAP1 SSTORE POP POP JUMP JUMPDEST PUSH1 0x0 DUP2 SWAP1 POP SWAP2 SWAP1 POP JUMP JUMPDEST PUSH2 0x206 DUP2 PUSH2 0x1F3 JUMP JUMPDEST DUP3 MSTORE POP POP JUMP JUMPDEST PUSH1 0x0 PUSH1 0x20 DUP3 ADD SWAP1 POP PUSH2 0x221 PUSH1 0x0 DUP4 ADD DUP5 PUSH2 0x1FD JUMP JUMPDEST SWAP3 SWAP2 POP POP JUMP JUMPDEST PUSH1 0x0 DUP2 MLOAD SWAP1 POP SWAP2 SWAP1 POP JUMP JUMPDEST PUSH1 0x0 DUP3 DUP3 MSTORE PUSH1 0x20 DUP3 ADD SWAP1 POP SWAP3 SWAP2 POP POP JUMP JUMPDEST PUSH1 0x0 JUMPDEST DUP4 DUP2 LT ISZERO PUSH2 0x261 JUMPI DUP1 DUP3 ADD MLOAD DUP2 DUP5 ADD MSTORE PUSH1 0x20 DUP2 ADD SWAP1 POP PUSH2 0x246 JUMP JUMPDEST DUP4 DUP2 GT ISZERO PUSH2 0x270 JUMPI PUSH1 0x0 DUP5 DUP5 ADD MSTORE JUMPDEST POP POP POP POP JUMP JUMPDEST PUSH1 0x0 PUSH1 0x1F NOT PUSH1 0x1F DUP4 ADD AND SWAP1 POP SWAP2 SWAP1 POP JUMP JUMPDEST PUSH1 0x0 PUSH2 0x292 DUP3 PUSH2 0x227 JUMP JUMPDEST PUSH2 0x29C DUP2 DUP6 PUSH2 0x232 JUMP JUMPDEST SWAP4 POP PUSH2 0x2AC DUP2 DUP6 PUSH1 0x20 DUP7 ADD PUSH2 0x243 JUMP JUMPDEST PUSH2 0x2B5 DUP2 PUSH2 0x276 JUMP JUMPDEST DUP5 ADD SWAP2 POP POP SWAP3 SWAP2 POP POP JUMP JUMPDEST PUSH1 0x0 PUSH1 0x20 DUP3 ADD SWAP1 POP DUP2 DUP2 SUB PUSH1 0x0 DUP4 ADD MSTORE PUSH2 0x2DA DUP2 DUP5 PUSH2 0x287 JUMP JUMPDEST SWAP1 POP SWAP3 SWAP2 POP POP JUMP JUMPDEST PUSH1 0x0 DUP1 REVERT JUMPDEST PUSH2 0x2F0 DUP2 PUSH2 0x1F3 JUMP JUMPDEST DUP2 EQ PUSH2 0x2FB JUMPI PUSH1 0x0 DUP1 REVERT JUMPDEST POP JUMP JUMPDEST PUSH1 0x0 DUP2 CALLDATALOAD SWAP1 POP PUSH2 0x30D DUP2 PUSH2 0x2E7 JUMP JUMPDEST SWAP3 SWAP2 POP POP JUMP JUMPDEST PUSH1 0x0 PUSH1 0x20 DUP3 DUP5 SUB SLT ISZERO PUSH2 0x329 JUMPI PUSH2 0x328 PUSH2 0x2E2 JUMP JUMPDEST JUMPDEST PUSH1 0x0 PUSH2 0x337 DUP5 DUP3 DUP6 ADD PUSH2 0x2FE JUMP JUMPDEST SWAP2 POP POP SWAP3 SWAP2 POP POP JUMP JUMPDEST PUSH1 0x0 DUP2 ISZERO ISZERO SWAP1 POP SWAP2 SWAP1 POP JUMP JUMPDEST PUSH2 0x355 DUP2 PUSH2 0x340 JUMP JUMPDEST DUP2 EQ PUSH2 0x360 JUMPI PUSH1 0x0 DUP1 REVERT JUMPDEST POP JUMP JUMPDEST PUSH1 0x0 DUP2 CALLDATALOAD SWAP1 POP PUSH2 0x372 DUP2 PUSH2 0x34C JUMP JUMPDEST SWAP3 SWAP2 POP POP JUMP JUMPDEST PUSH1 0x0 PUSH1 0x20 DUP3 DUP5 SUB SLT ISZERO PUSH2 0x38E JUMPI PUSH2 0x38D PUSH2 0x2E2 JUMP JUMPDEST JUMPDEST PUSH1 0x0 PUSH2 0x39C DUP5 DUP3 DUP6 ADD PUSH2 0x363 JUMP JUMPDEST SWAP2 POP POP SWAP3 SWAP2 POP POP JUMP JUMPDEST PUSH32 0x4E487B7100000000000000000000000000000000000000000000000000000000 PUSH1 0x0 MSTORE PUSH1 0x22 PUSH1 0x4 MSTORE PUSH1 0x24 PUSH1 0x0 REVERT JUMPDEST PUSH1 0x0 PUSH1 0x2 DUP3 DIV SWAP1 POP PUSH1 0x1 DUP3 AND DUP1 PUSH2 0x3EC JUMPI PUSH1 0x7F DUP3 AND SWAP2 POP JUMPDEST PUSH1 0x20 DUP3 LT DUP2 EQ ISZERO PUSH2 0x400 JUMPI PUSH2 0x3FF PUSH2 0x3A5 JUMP JUMPDEST JUMPDEST POP SWAP2 SWAP1 POP JUMP JUMPDEST PUSH32 0x4E487B7100000000000000000000000000000000000000000000000000000000 PUSH1 0x0 MSTORE PUSH1 0x11 PUSH1 0x4 MSTORE PUSH1 0x24 PUSH1 0x0 REVERT JUMPDEST PUSH1 0x0 PUSH2 0x440 DUP3 PUSH2 0x1F3 JUMP JUMPDEST SWAP2 POP PUSH2 0x44B DUP4 PUSH2 0x1F3 JUMP JUMPDEST SWAP3 POP DUP3 PUSH32 0x8000000000000000000000000000000000000000000000000000000000000000 ADD DUP3 SLT PUSH1 0x0 DUP5 SLT ISZERO AND ISZERO PUSH2 0x486 JUMPI PUSH2 0x485 PUSH2 0x406 JUMP JUMPDEST JUMPDEST DUP3 PUSH32 0x7FFFFFFFFFFFFFFFFFFFFFFFFFFFFFFFFFFFFFFFFFFFFFFFFFFFFFFFFFFFFFFF ADD DUP3 SGT PUSH1 0x0 DUP5 SLT AND ISZERO PUSH2 0x4BE JUMPI PUSH2 0x4BD PUSH2 0x406 JUMP JUMPDEST JUMPDEST DUP3 DUP3 SUB SWAP1 POP SWAP3 SWAP2 POP POP JUMP JUMPDEST PUSH1 0x0 PUSH2 0x4D4 DUP3 PUSH2 0x1F3 JUMP JUMPDEST SWAP2 POP PUSH2 0x4DF DUP4 PUSH2 0x1F3 JUMP JUMPDEST SWAP3 POP DUP3 PUSH32 0x7FFFFFFFFFFFFFFFFFFFFFFFFFFFFFFFFFFFFFFFFFFFFFFFFFFFFFFFFFFFFFFF DIV DUP3 GT PUSH1 0x0 DUP5 SGT PUSH1 0x0 DUP5 SGT AND AND ISZERO PUSH2 0x51E JUMPI PUSH2 0x51D PUSH2 0x406 JUMP JUMPDEST JUMPDEST DUP2 PUSH32 0x8000000000000000000000000000000000000000000000000000000000000000 SDIV DUP4 SLT PUSH1 0x0 DUP5 SLT PUSH1 0x0 DUP5 SGT AND AND ISZERO PUSH2 0x55B JUMPI PUSH2 0x55A PUSH2 0x406 JUMP JUMPDEST JUMPDEST DUP3 PUSH32 0x8000000000000000000000000000000000000000000000000000000000000000 SDIV DUP3 SLT PUSH1 0x0 DUP5 SGT PUSH1 0x0 DUP5 SLT AND AND ISZERO PUSH2 0x598 JUMPI PUSH2 0x597 PUSH2 0x406 JUMP JUMPDEST JUMPDEST DUP3 PUSH32 0x7FFFFFFFFFFFFFFFFFFFFFFFFFFFFFFFFFFFFFFFFFFFFFFFFFFFFFFFFFFFFFFF SDIV DUP3 SLT PUSH1 0x0 DUP5 SLT PUSH1 0x0 DUP5 SLT AND AND ISZERO PUSH2 0x5D5 JUMPI PUSH2 0x5D4 PUSH2 0x406 JUMP JUMPDEST JUMPDEST DUP3 DUP3 MUL SWAP1 POP SWAP3 SWAP2 POP POP JUMP JUMPDEST PUSH1 0x0 PUSH2 0x5EB DUP3 PUSH2 0x1F3 JUMP JUMPDEST SWAP2 POP PUSH2 0x5F6 DUP4 PUSH2 0x1F3 JUMP JUMPDEST SWAP3 POP DUP2 PUSH32 0x7FFFFFFFFFFFFFFFFFFFFFFFFFFFFFFFFFFFFFFFFFFFFFFFFFFFFFFFFFFFFFFF SUB DUP4 SGT PUSH1 0x0 DUP4 SLT ISZERO AND ISZERO PUSH2 0x631 JUMPI PUSH2 0x630 PUSH2 0x406 JUMP JUMPDEST JUMPDEST DUP2 PUSH32 0x8000000000000000000000000000000000000000000000000000000000000000 SUB DUP4 SLT PUSH1 0x0 DUP4 SLT AND ISZERO PUSH2 0x669 JUMPI PUSH2 0x668 PUSH2 0x406 JUMP JUMPDEST JUMPDEST DUP3 DUP3 ADD SWAP1 POP SWAP3 SWAP2 POP POP JUMP INVALID LOG2 PUSH5 0x6970667358 0x22 SLT KECCAK256 0xE2 CREATE 0xAA GASLIMIT 0xDC PUSH13 0xFADC5C8FCD2388F288DD226D2A 0x49 EXP DUP7 DUP10 PUSH9 0x84919AC03EA0C57864 PUSH20 0x6F6C634300080A00330000000000000000000000 "
		},
		"gasEstimates": {
			"creation": {
				"codeDepositCost": "341200",
				"executionCost": "infinite",
				"totalCost": "infinite"
			},
			"external": {
				"buy(int256)": "infinite",
				"profits()": "2407",
				"refund(int256)": "infinite",
				"seeProfits(bool)": "infinite",
				"storeName()": "infinite"
			}
		},
		"methodIdentifiers": {
			"buy(int256)": "e9403013",
			"profits()": "2b36a657",
			"refund(int256)": "7249b354",
			"seeProfits(bool)": "d7b7c408",
			"storeName()": "521936e6"
		}
	},
	"abi": [
		{
			"inputs": [
				{
					"internalType": "int256",
					"name": "price",
					"type": "int256"
				}
			],
			"name": "buy",
			"outputs": [],
			"stateMutability": "nonpayable",
			"type": "function"
		},
		{
			"inputs": [],
			"name": "profits",
			"outputs": [
				{
					"internalType": "int256",
					"name": "",
					"type": "int256"
				}
			],
			"stateMutability": "view",
			"type": "function"
		},
		{
			"inputs": [
				{
					"internalType": "int256",
					"name": "price",
					"type": "int256"
				}
			],
			"name": "refund",
			"outputs": [],
			"stateMutability": "nonpayable",
			"type": "function"
		},
		{
			"inputs": [
				{
					"internalType": "bool",
					"name": "realProfits",
					"type": "bool"
				}
			],
			"name": "seeProfits",
			"outputs": [
				{
					"internalType": "int256",
					"name": "",
					"type": "int256"
				}
			],
			"stateMutability": "view",
			"type": "function"
		},
		{
			"inputs": [],
			"name": "storeName",
			"outputs": [
				{
					"internalType": "string",
					"name": "",
					"type": "string"
				}
			],
			"stateMutability": "view",
			"type": "function"
		}
	]
}